:100000000C94D5000C94390F0C94120F0C94EB0E39
:100010000C94C40E0C94FD000C94FD000C949D0EE9
:100020000C94FD000C94FD000C94B20B0C94210C6C
:100030000C94FD000C94FD000C94FD000C94FD004C
:100040000C94FD000C94FD000C94FD000C94FD003C
:100050000C94FD000C94FD000C94FD000C94530EC8
:100060000C94FD000C94FD000C94FD000C94FD001C
:100070000C94FD000C94FD000C94FD000C94FD000C
:100080000C94FD000C94FD000C94FD000C94FD00FC
:100090000C94FD000C94FD000C94FD000C94FD00EC
:1000A0000C94FD000C94FD000C94FD000000000079
:1000B000240027002A002D00300000000000250049
:1000C00028002B002E0031000000000200090F0064
:1000D00000030401000C000000000000000000000C
:1000E00000000000000000080B00020202000009EE
:1000F0000400000102020000052400100105240193
:1001000001010424020605240600010705810310ED
:10011000004009040100020A000000070502024035
:1001200000000705830240000004030904120100D7
:1001300002EF020140412336800001010203014128
:10014000726475696E6F204C4C430041726475692E
:100150006E6F204C656F6E6172646F00040802015F
:100160001040804010204080408008020401804000
:1001700020100201108010204040200000000023C9
:1001800000260029002C002F0004040404040304AA
:100190000502020202040302020202060606060625
:1001A0000604040202020404600F11241FBECFEFF4
:1001B000DAE0DEBFCDBF12E0A0E0B1E0E0EFF8E2B0
:1001C00002C005900D92AE36B107D9F723E0AEE636
:1001D000B2E001C01D92A131B207E1F710E0C5ED18
:1001E000D0E004C02197FE010E948411C43DD107D4
:1001F000C9F70E941E100C9476140C940000FC01A8
:1002000080919202882311F13FB7F89482E08093A5
:10021000E9002091F200822F90E01816190614F4DC
:1002200081E090E0882339F0289844E640939102D9
:100230004091F1004083222339F02091F2002111F6
:1002400003C02BE62093E8003FBF08958FEF9FEF98
:1002500008952FB7F89483E08093E9009091E80027
:10026000892F807295FF04C09091F20080E4891B71
:100270002FBF08958091890281110DC082E0809383
:10028000850284E080938602109288021092870291
:1002900081E08093890285E892E0089540917F0291
:1002A0005091800220917D0230917E0242175307C7
:1002B000B4F49091E8009570E1F39091E80092FD1C
:1002C00019C08093F10080917F0290918002019685
:1002D0008F739927892B19F48EEF8093E800809112
:1002E0007F029091800201969093800280937F021A
:1002F00081E0089580E00895EF92FF920F931F939D
:10030000CF93DF93F82E192FE62E042F81E0860F6E
:10031000880F0E944E0183E00E944E01CF2DD12F05
:10032000EC0EFD2EF11CCE15DF05B9F007FF13C052
:10033000FE0184910E944E01182F80E00E944E0120
:10034000812321968111EFCFDF91CF911F910F91E2
:10035000FF90EF9008958881EDCF81E0F5CFDF9297
:10036000EF92FF920F931F93CF93DF93D82E8A01C2
:10037000EB017B01E40EF51ECE15DF0559F0D7FE2B
:1003800012C0FE0184910E944E0121968111F4CF8A
:100390000FEF1FEFC801DF91CF911F910F91FF90D9
:1003A000EF90DF9008958881EECF0F931F93CF9346
:1003B000DF931F92CDB7DEB782E0898342E450E03D
:1003C00067EE70E080E80E94AF010E943A01DC0114
:1003D00012960D911C910115110589F0D801ED912E
:1003E000FC910280F381E02DBE016F5F7F4FC80159
:1003F000099597FD04C0F80100851185ECCF89812E
:100400000F90DF91CF911F910F910895615030F0BF
:100410002091F100FC0120830196F8CF289884E612
:10042000809391020895AF92BF92CF92DF92EF92A4
:10043000FF920F931F93CF93DF936C017B018B018E
:10044000040F151FEB015E01AE18BF08C017D107DE
:1004500059F06991D601ED91FC910190F081E02D68
:10046000C6010995892B79F7C501DF91CF911F91BD
:100470000F91FF90EF90DF90CF90BF90AF900895D5
:10048000CF93DF931F92CDB7DEB76983DC01ED9187
:10049000FC910280F381E02D41E050E0BE016F5FEE
:1004A0007F4F09950F90DF91CF91089583E080935E
:1004B000E9008091F200882319F08AE38093E80034
:1004C00008950E94290190E00895CF93DF931F9231
:1004D000CDB7DEB7FC018485958597FD08C02FEF69
:1004E0003FEF358724870F90DF91CF910895CE019C
:1004F00001960E94FF00019719F4898190E0F3CFE3
:100500008FEF9FEFF0CF0F931F93CF93DF931F9247
:10051000CDB7DEB78C01FC018485958597FF0BC0B4
:10052000CE0101960E94FF00019771F4898190E04D
:10053000F80195878487F801848595850F90DF9170
:10054000CF911F910F9108958FEF9FEFF1CFFC0195
:100550008485958597FD0BC09FB7F89482E08093C2
:10056000E9008091F2009FBF90E0019608959FB747
:10057000F89482E08093E9008091F2009FBF90E0C0
:100580000895282F30E0F901E853FF4F9491F901C5
:10059000E45AFE4F849127573E4FF90124912223BC
:1005A00009F430C09923E9F091509F30D0F4E92F3D
:1005B000F0E0E352FD4F0C9484110B030F03EC02A7
:1005C00003030703F102F102F102120318031C03F3
:1005D00020032603F1022A03909180009F779093D5
:1005E0008000E22FF0E0EE0FFF1FE654FF4FA591D1
:1005F000B4919FB7F894EC91611132C080958E232D
:100600008C939FBF0895909180009F7DE8CF90913B
:100610008000977FE4CF94B59F7794BDE2CF94B5E7
:100620009F7DFBCF909190009F7790939000D9CFC2
:10063000909190009F7DF9CF90919000977FF5CF9A
:100640009091C0009F779093C000CBCF9091C00055
:100650009F7DF9CF9091C200977F9093C200C1CF48
:100660008E2BCECFCF93DF9390E0FC01E45AFE4F68
:10067000249187579E4FFC0184918823D1F090E00C
:10068000880F991FFC01E455FF4FA591B491FC011F
:10069000E654FF4FC591D491623071F49FB7F8943E
:1006A0003C91822F809583238C93E8812E2B288385
:1006B0009FBFDF91CF9108958FB7F894EC912E2BC7
:1006C0002C938FBFF6CF3FB7F89480917902909129
:1006D0007A02A0917B02B0917C0226B5A89B05C04E
:1006E0002F3F19F00196A11DB11D3FBFBA2FA92FB1
:1006F000982F8827BC01CD01620F711D811D911DAE
:1007000042E0660F771F881F991F4A95D1F7089519
:100710008F929F92AF92BF92CF92DF92EF92FF9211
:100720004B015C010E9463036B017C010E94630327
:100730006C197D098E099F09683E734081059105FA
:10074000A8F321E0821A9108A108B10888EEC80E2A
:1007500083E0D81EE11CF11C81149104A104B104B2
:1007600029F7FF90EF90DF90CF90BF90AF909F90D0
:100770008F9008958F929F92AF92BF92CF92DF9207
:10078000EF92FF920F931F93CF93DF936C017B0146
:100790008A0180910B01882309F45CC08091920248
:1007A000882309F457C08091830280FF05C080919F
:1007B000E00082608093E000E801B12C8AEFA82E6F
:1007C00093E0892E2AE3922E209711F4BB20D9F1D1
:1007D0000E94290181110AC0AA94AA20D9F161E0DE
:1007E00070E080E090E00E948803EECF8C171D0639
:1007F00011F00CF08C2F9FB7F8948092E9002091B3
:10080000E80025FD02C09FBFDFCF282F30E0C21BCC
:10081000D30BF701815020F041914093F100FACFC2
:10082000E20EF31EBB2021F09092E800B12CEBCF3A
:100830008091E80085FDE7CF9092E800BB24B39457
:10084000209709F3F3CF5D9884E680938202101617
:1008500011063CF081E090E0F6019383828310E082
:1008600000E0C801DF91CF911F910F91FF90EF90B1
:10087000DF90CF90BF90AF909F908F900895089594
:10088000089590E080E00895CF92DF92EF92FF927A
:100890000F931F939FB7F894409175025091760281
:1008A00060917702709178029FBF00916F02109162
:1008B000700220917102309172026A017B01C01AAC
:1008C000D10AE20AF30A970186010B3F11052105BF
:1008D000310568F040936F0250937002609371028B
:1008E0007093720290917302892B809373021F910F
:1008F0000F91FF90EF90DF90CF90089581E00C94DE
:10090000440482E00C944404DC01ED91FD9180816B
:10091000ED91FD919081ED91FD916C9163708E232D
:1009200009F064609F2309F06860E1EAF4E0E60FF3
:10093000F11D659565956D936D917D918D919D915D
:10094000099423C01AC012C016C010C01EC009C02E
:1009500014C013C006C019C009C00DC007C00DC027
:1009600014C062507040804090400BC06150704095
:100970008040904006C06E5F01C06F5F7F4F8F4F19
:100980009F4F9E938E937E936E9308958091E30282
:100990009091E4020C9484048091E5029091E60227
:1009A0000C9484048091E7029091E8020C948404F2
:1009B0008091E9029091EA020C9484048091EB0208
:1009C0009091EC020C9484044F925F926F927F920C
:1009D0008F929F92AF92BF92CF92DF92EF92FF924F
:1009E000CF934B015C01C42F8FB7F89440907502F0
:1009F0005090760260907702709078028FBF80915D
:100A0000F802823008F03FC0F8948DEE92E00E9428
:100A10008404C090F402D090F502E090F602F090C9
:100A2000F7027894809173028C2309F064C080915E
:100A3000F802823050F5F8948DEE92E00E94840422
:100A40008091F4029091F502A091F602B091F70224
:100A500078942FEF82169206A206B206C1F4C81649
:100A6000D906EA06FB06F1F2B701A601481B590BAD
:100A70006A0B7B0B4370552766277727452B462B40
:100A8000472B81F618C0F894C4CFF894D9CF2FB76C
:100A9000F8944091750250917602609177027091BE
:100AA00078022FBF441955096609770984169506FF
:100AB000A606B706A0F68C199D09AE09BF09B7FFB7
:100AC00003C08FEF9FEF09C031E020E0892B8A2B14
:100AD0008B2B09F430E0832F922FCF91FF90EF9072
:100AE000DF90CF90BF90AF909F908F907F906F904E
:100AF0005F904F90089580E090E0EFCFCF93DF9329
:100B0000EC0160E08E810E94C10261E08E810E9452
:100B1000C10260E08E810E94C1028BE891E00197E2
:100B2000F1F7DF91CF910895CF92DF92EF92FF928C
:100B30000F931F93CF93DF936C017C0187E0E80E46
:100B4000F11CD0E0C0E0062F10E0B8010C2E02C06E
:100B5000759567950A94E2F76170F70181917F01BD
:100B60000E94C1022196C430D10579F7C601DF91F8
:100B7000CF911F910F91FF90EF90DF90CF900C9449
:100B80007E05CF92DF92EF92FF920F931F93CF9348
:100B9000DF93EC01F62E642F8C810E94C1028D81BF
:100BA0008F3F19F060E00E94C1020F2D10E08F8589
:100BB00084FF25C06E0187E0C80ED11CF12CE12C0A
:100BC000B8010E2C02C0759567950A94E2F7617022
:100BD000F60181916F010E94C102FFEFEF1AFF0A37
:100BE00088E0E816F10461F7CE01DF91CF911F9103
:100BF0000F91FF90EF90DF90CF900C947E05B8019D
:100C000084E0759567958A95E1F7CE010E94940579
:100C10006F2DCE01DF91CF911F910F91FF90EF903B
:100C2000DF90CF900C94940540E0682F89EF92E01C
:100C30000C94C10581E00E9414068BE39FE10197AB
:100C4000F1F70895CF93DF93823029F49091080350
:100C500098609093080380930C0310920D0380E436
:100C600080930E0380E180930F0380E5809310034F
:100C700061E08091FD020E9432038091FE028F3F6D
:100C800019F061E00E94320361E08091FF020E944E
:100C90003203C9EFD2E09E01295F32408091080300
:100CA00084FD0BC084E090E021962817390744F4B6
:100CB00061E08E810E943203EECF88E090E0F4CFB5
:100CC0008BE39DE00197F1F760E08091FD020E94C7
:100CD000C10260E08091FF020E94C1028091FE0289
:100CE0008F3F19F060E00E94C1028091080384FDEB
:100CF00034C063E089EF92E00E949405CBE4D6E42F
:100D0000CE010197F1F763E089EF92E00E9494052C
:100D10002197F1F763E089EF92E00E94940583E563
:100D200092E00197F1F762E089EF92E00E9494056A
:100D30008091080380620E94140684E08093090376
:100D40008CE00E9414060E941A0682E080930A0337
:100D500086E0DF91CF910C94140680620E94140605
:100D60008BE496E40197F1F78091080380620E947A
:100D7000140683E592E00197F1F780910803806201
:100D80000E941406D5CF643008F063E090910C0304
:100D9000691710F06FEF690FE62FF0E0E750FD4F95
:100DA0009489890F80680C94140641E00E94C10563
:100DB00081E090E008950F931F93CF93DF938B0111
:100DC00028E0829FC001112480640E941406E8017B
:100DD000085F1F4F699189EF92E00E94D506C01706
:100DE000D107C1F7DF91CF911F910F910895FB01BA
:100DF00001900020E9F73197AF01461B570BDC014A
:100E0000ED91FC910280F381E02D0994009729F087
:100E1000BC0189EF92E00C94F70690E080E0089521
:100E20000F931F93CF93DF9300D000D000D0CDB7A6
:100E3000DEB78E010F5F1F4F96E0F80111929A9571
:100E4000E9F76CE30E9464111F929F931F928F93A6
:100E500081EC91E09F938F931F930F930E949E11BB
:100E600061E085E00E94C306C8010E9406070FB634
:100E7000F894DEBF0FBECDBF26960FB6F894DEBF46
:100E80000FBECDBFDF91CF911F910F910895CF93EA
:100E9000DF93C82F809173028E7F8093730261E08D
:100EA00084E00E94C1020E941A0660E080E00E9475
:100EB000C3068BEC91E00E94060784E0C89FE00126
:100EC0001124CE0195958795959587950E941007D9
:100ED0008091730280FF15C0809173028E7F809392
:100EE000730260E084E00E94C1020E941A0661E081
:100EF00083E00E94C3068CED91E0DF91CF910C94CA
:100F000006076AEF70E080E090E00E948803219776
:100F1000C0F6E7CF1F93CF93DF93162FC82FD0E0F3
:100F200090917302862F80958923809373020E948B
:100F30001A0660E080E00E94C30685EE91E00E9400
:100F400006078C2F0E941007412F6FEF7FEFCB0118
:100F50000E94E4049E01281B390BC90120917302F1
:100F6000212361F4EC018F3F910519F014F0CFEFCC
:100F7000D0E0D7FFDCCFD0E0C0E0D9CFDF91CF9178
:100F80001F91089563E08AE50E948A079091730299
:100F900091FF0BC09091730290FD07C09091730276
:100FA0009C7F909373020E944707809173028C7F0D
:100FB0008093730208952F923F924F925F926F92A7
:100FC0007F928F929F92AF92BF92CF92DF92EF92D9
:100FD000FF920F931F93CF93DF9300D000D0CDB734
:100FE000DEB75C018B01CB0162E070E00E94701102
:100FF000AC01980117FF02C02F5F3F4F3595279531
:10100000240F351FC90101979A8389839091730238
:101010009E7F909373021C821B8272E0472E512C9C
:101020001201241A350A0E941A066B807C8077FE12
:1010300003C09FEF691A790A759467941614170410
:101040004CF460E080E00E94C30661E089EF92E02A
:101050000E94D506E981FA8141016E167F0664F48B
:1010600061E080E00E94C30663E089EF92E00E94A5
:10107000D50692E0892E912C660C771CF1E1F69D45
:101080007001F79DF00C1124EA0CFB1CD12CC12C33
:101090006C2D82E00E94C306C7010E9406072FEF55
:1010A000C21AD20A31E1E30EF11C8C149D0481F7BF
:1010B0008B819C81B2010E9470117C01682F81E0BC
:1010C0000E94C3066EE389EF92E00E94D5068091EC
:1010D000730280FD1BC041E06FEF7FEFCB010E94E8
:1010E000E4042B813C81280F391F3C832B8337FF7D
:1010F00002C01C821B828B819C81801791070CF49B
:1011000092CFF8013197FC83EB838DCF6E0C7F1C5F
:1011100021E1269DC001279D900D1124A80EB91E26
:10112000F5010784F089E02DFA83E9838091730249
:101130008E7F809373020E941A0689819A810F9094
:101140000F900F900F90DF91CF911F910F91FF9013
:10115000EF90DF90CF90BF90AF909F908F907F9057
:101160006F905F904F903F902F9008950F931F9333
:10117000CF93DF93CDB7DEB7E3970FB6F894DEBF1A
:101180000FBECDBF83E3E6E3F1E0DE0111960190EF
:101190000D928A95E1F763E070E0CE0101960E941E
:1011A000DB078C016AEF70E080E090E00E9488032A
:1011B0000115110511F0F8010995E3960FB6F894A1
:1011C000DEBF0FBECDBFDF91CF911F910F9108956C
:1011D000CF93DF93EB010E944E118883CE01DF9104
:1011E000CF910895CF92DF92EF92FF920F931F93CA
:1011F000CF93DF931F92CDB7DEB76C018B0184E0F4
:10120000000F111F8A95E1F7BE016F5F7F4FC80184
:101210000F960E94E808898180FF29C0BE016F5F98
:101220007F4FC8010E94E808898190E0F601908B09
:101230008787F12CE12C0F5F1F4FB6016E0D7F1DCC
:10124000C8018E0D9F1D0E94E808FFEFEF1AFF0AEC
:101250008EE0E816F10489F7C6010F90DF91CF9177
:101260001F910F91FF90EF90DF90CF900895D12CB8
:10127000C12CF2CF5F926F927F928F929F92AF922A
:10128000BF92CF92DF92EF92FF920F931F93CF9373
:10129000DF93CDB7DEB7AE970FB6F894DEBF0FBEC3
:1012A000CDBF7E018EE1E80EF11C81E1F7011192C4
:1012B0008A95E9F760E082E00E94C30686EF91E03C
:1012C0000E940607809173028C7F8093730243E033
:1012D00060ED77E080E090E00E94E404809173028A
:1012E0008C7F809373020E941A06FE01319681E47E
:1012F0005F0181938F5F8B35E1F78FE58B8F85E001
:101300008C8F84E08D8F27E1522E10E000E03DE1CC
:10131000832E912C0E941A06809109038E7F809360
:10132000090388600E94140660E080E00E94C30602
:10133000A801B70189EF92E00E9413026FE589EFDF
:1013400092E00E94D50661E080E00E94C306D12CA5
:10135000C12C652C052C000C7708C6010697029756
:1013600028F460E289EF92E00E94D506C3018C0D5B
:101370009D1DB4010E947011F501E80FF91F6081F5
:1013800089EF92E00E94D506FFEFCF1ADF0A8DE0C9
:10139000C816D10411F760E0802F0E94C306809127
:1013A0000903982F91609093090389600E941406A5
:1013B00041E06FEF7FEFCB010E94E404580E57FE2F
:1013C00002C09DE1592E8091730280FFA3CF8091CE
:1013D00073028E7F80937302852D052C000C990B70
:1013E0000696B4010E947011F501E80FF91F808183
:1013F000853039F40115110509F48CCF015011091C
:1014000089CFF701E00FF11F843009F044C010824A
:101410000E941A06809109038D7F809309038860DA
:101420000E941406809109038E7F809309038860CF
:101430000E941406012BC1F560E081E00E94C30602
:1014400081E092E00E940607809173028C7F809376
:10145000730243E060ED77E080E090E00E94E404F6
:10146000809173028C7F80937302AE960FB6F894CE
:10147000DEBF0FBECDBFDF91CF911F910F91FF90C7
:10148000EF90DF90CF90BF90AF909F908F907F9024
:101490006F905F90089580830E30110510F00DE07D
:1014A00010E00F5F1F4F36CF60E082E00E94C3065E
:1014B0008EE092E00E940607809173028C7F8093F9
:1014C000730243E060ED77E080E090E00E94E40486
:1014D000809173028C7F8093730261E08AE50E94A1
:1014E0008A07209173022E7F2093730299279EA76B
:1014F0008DA781E1F50111928A95E9F710E000E0EE
:10150000B801C5010E94F208892BC1F00F5F1F4F7F
:1015100000341105A9F760E081E00E94C3068FE165
:1015200092E00E940607809173028E7F809373027F
:1015300041E060ED77E080E090E033C084E0000FB0
:10154000111F8A95E1F761E0C8010F960E945611BC
:101550006DA5C8010E9456116E01FCE2CF0ED11C90
:101560000E191F09F70161917F01C8018E0F9F1F9E
:101570000E945611CE14DF04A9F70E941A0660E0FB
:1015800085E00E94C30689E192E00E9406078091EF
:1015900073028E7F8093730241E066ED76E080E017
:1015A00090E00E94E404809173028E7F5CCF9F9252
:1015B000AF92BF92CF92DF92EF92FF920F931F9361
:1015C000CF93DF93CDB7DEB7C155D4400FB6F894B3
:1015D000DEBF0FBECDBF9E012F5F3F4F790181E57A
:1015E00094E0F9019C01119221503040E1F780E430
:1015F000A82EB12C10E000E091E1992E909E6001A0
:10160000919ED00C1124CE0CDF1CB801C6010E94A3
:10161000F208892B29F0F601108B07870F5F1F4F07
:10162000F1E0AF1AB10851F721E1209FC001219FDD
:10163000900D11248E0D9F1D25E0E1EFF1E0DC01FE
:1016400001900D922A95E1F72FEF3FEFFC01308BCF
:101650002787B8016F5F7F4FC7010E94DB07CF5A12
:10166000DB4F0FB6F894DEBF0FBECDBFDF91CF9139
:101670001F910F91FF90EF90DF90CF90BF90AF90B0
:101680009F9008950E94D70A8F3F980749F024E061
:10169000880F991F2A95E1F760E00F960C94561178
:1016A00008950F931F93CF93DF93CDB7DEB7619764
:1016B0000FB6F894DEBF0FBECDBF8E010F5F1F4F78
:1016C00081E1F80111928A95E9F70E94D70A8F3FCC
:1016D000980721F1BC01C8010E94F208892B49F545
:1016E0000E941A0660E080E00E94C3066DE272E08C
:1016F00089EF92E00E94F70661E080E00E94C30655
:101700006CE372E089EF92E00E94F70668EB7BE001
:1017100080E090E00E9488030E941A0661960FB64E
:10172000F894DEBF0FBECDBFDF91CF911F910F9117
:10173000089563E088890E948A079091730291FF5F
:101740000BC09091730290FD07C0909173029C7F33
:10175000909373020E944707809173028C7F80935D
:101760007302DCCF1F920F920FB60F9211248F934A
:101770009F938091E1009091E100937F9093E1002D
:1017800083FF0FC01092E90091E09093EB0010925C
:10179000EC0092E39093ED001092920298E0909307
:1017A000F00082FF22C093E09093E9009091F20054
:1017B000992319F09AE39093E8009091820299237B
:1017C00041F090918202915090938202911101C058
:1017D0005D9A90919102992341F0909191029150DC
:1017E00090939102911101C0289A84FF18C08091B2
:1017F000E2008E7E81608093E2008091E1008F7E26
:101800008093E100809183028E7E806180938302C9
:101810009F918F910F900FBE0F901F90189580FF92
:10182000F7CF8091E2008E7E80618093E20080910C
:10183000E1008E7E8093E100809183028E7E816044
:10184000E5CF1F920F920FB60F921124CF92DF9225
:10185000EF92FF920F931F932F933F934F935F93BA
:101860006F937F938F939F93AF93BF93EF93FF9368
:10187000CF93DF93CDB7DEB76C97DEBFCDBF1092AD
:10188000E9008091E80083FF25C068E0CE0145961D
:101890000E94060282EF8093E8008D8987FF39C09D
:1018A0009091E80090FFFCCF982F907609F034C11A
:1018B0009E894F89588D2F89F88C911131C08038BD
:1018C00061F5809184028093F1001092F1008EEF17
:1018D0008093E8006C960FB6F894DEBF0FBECDBFC4
:1018E000DF91CF91FF91EF91BF91AF919F918F9138
:1018F0007F916F915F914F913F912F911F910F9128
:10190000FF90EF90DF90CF900F900FBE0F901F9041
:1019100018959EEF9093E800C7CF1092F100D5CFB5
:10192000913059F48111D3CF4130510581F6809126
:1019300084028D7F80938402CACF933049F4811151
:10194000C6CF4130510519F6809184028260F2CFF2
:10195000953041F48091E80080FFFCCF206820930F
:10196000E300B5CF963009F0A9C00B8D1C8D22E0A5
:101970001092E9001092800210927F02F2122EC0A3
:1019800010927E0210927D020E94D5011F8299E082
:101990009983FA8291E09E8390EA98879AEF9987DB
:1019A00020917F0230918002275F3F4F3C832B8341
:1019B0008D831092E9001092800210927F021093A2
:1019C0007E0200937D0249E050E0BE016F5F7F4FD1
:1019D00080E00E94AF010E94D50179CF10937E0272
:1019E00000937D020E943A01DC0112960D911C9138
:1019F0000115110509F451C1D801ED91FC91048044
:101A0000F581E02DBE016B5E7F4FC80109950097FF
:101A100009F03EC1F80100851185EACFF3E0FF121D
:101A20000EC08F89882309F440C0823061F440E8F9
:101A300060E18BE491E00E947C01811148CF81E25A
:101A40008093EB0047CF813029F440E86BE08FE3CF
:101A500091E0F1CF833099F70E943A01DC011296B0
:101A6000ED90FC908E010F5F1F4F6801E114F104AF
:101A700079F0D701ED91FC910680F781E02DB80156
:101A8000C7010995080F111DF701E084F184EECF1D
:101A9000D8011C92F60101900020E9F73197BF01AF
:101AA0006C197D0940E0C601C6CF69E271E0FB0117
:101AB000449150E080E80E94AF0109CF973009F4CB
:101AC000BECF983021F481E08093F10000CF9930AF
:101AD00009F0FDCE837009F0B2CFEDE9F1E081E0CD
:101AE00031E096E32191222371F08093E900309355
:101AF000EB00DF0111972C912093EC009093ED0007
:101B00008F5F873079F78EE78093EA001092EA00C2
:101B10008F8980939202DBCE8B8D9C8D1092E90091
:101B20001092800210927F0290937E0280937D0239
:101B3000898D811192C08E899D89913A49F48132B3
:101B400009F07DCF47E050E064E071E080E0B3CF82
:101B5000913209F074CF833269F48F89988DB0E0A7
:101B6000A0E08093000190930101A0930201B09343
:101B70000301ADCE803269F48091E80082FFFCCF92
:101B800067E084E091E00E9406028BEF8093E8001A
:101B90009ECE823209F09BCE8F8980930B01EEEFAF
:101BA000FFE7859194918B3F9C4D51F1E0E0F8E087
:101BB0008091040190910501A0910601B091070167
:101BC000803B9440A105B105F1F480910B0180FDAB
:101BD0001AC0EE3F8AE0F80789F587E797E7918317
:101BE0008083809160008093810288E19BE00FB642
:101BF000F894A895809360000FBE9093600067CE24
:101C0000EEEFFAE0D5CF808191818737974709F0D1
:101C10005ECEA8958091600088618093600080917D
:101C2000810280936000EE3F2AE0F20789F0809104
:101C3000FE0A9091FF0A9183808349CE8081918131
:101C40008737980751F29093FF0A8093FE0AC5CF19
:101C50001092FF0A1092FE0A3ACE0E943A01DC016D
:101C600012960D911C910115110509F4E8CED801C9
:101C7000ED91FC910190F081E02DBE016B5E7F4FF4
:101C8000C8010995811123CEF80100851185EBCF9C
:101C9000181619060CF41BCED2CEF1E0FF12BECE00
:101CA0006DE271E004CF1F920F920FB60F921124D4
:101CB0002F933F938F939F93AF93BF938091750220
:101CC00090917602A0917702B091780230917402DF
:101CD00023E0230F2D3758F50196A11DB11D209348
:101CE00074028093750290937602A0937702B0936A
:101CF00078028091790290917A02A0917B02B09152
:101D00007C020196A11DB11D8093790290937A0205
:101D1000A0937B02B0937C02BF91AF919F918F9172
:101D20003F912F910F900FBE0F901F90189526E8AE
:101D3000230F0296A11DB11DD2CF1F920F920FB695
:101D40000F9211242F933F934F935F936F937F9341
:101D50008F939F93AF93BF93EF93FF93E0913401E1
:101D6000F09135010995FF91EF91BF91AF919F914E
:101D70008F917F916F915F914F913F912F910F9034
:101D80000FBE0F901F9018951F920F920FB60F92D3
:101D900011242F933F934F935F936F937F938F9370
:101DA0009F93AF93BF93EF93FF93E0913201F09134
:101DB00033010995FF91EF91BF91AF919F918F9161
:101DC0007F916F915F914F913F912F910F900FBE37
:101DD0000F901F9018951F920F920FB60F9211241B
:101DE0002F933F934F935F936F937F938F939F9323
:101DF000AF93BF93EF93FF93E0913001F0913101E6
:101E00000995FF91EF91BF91AF919F918F917F9134
:101E10006F915F914F913F912F910F900FBE0F9057
:101E20001F9018951F920F920FB60F9211242F93A7
:101E30003F934F935F936F937F938F939F93AF9352
:101E4000BF93EF93FF93E0912E01F0912F0109953D
:101E5000FF91EF91BF91AF919F918F917F916F9182
:101E60005F914F913F912F910F900FBE0F901F9058
:101E700018951F920F920FB60F9211242F933F9334
:101E80004F935F936F937F938F939F93AF93BF9382
:101E9000EF93FF93E0912C01F0912D010995FF91B3
:101EA000EF91BF91AF919F918F917F916F915F91D2
:101EB0004F913F912F910F900FBE0F901F9018954B
:101EC000CF93DF93109296021092950288EE93E0E2
:101ED000A0E0B0E08093970290939802A0939902BB
:101EE000B0939A0287EA91E09093940280939302D0
:101EF0008FEF9FEF9093A00280939F021092FC02BD
:101F00001092FB0289EB91E09093FA028093F90220
:101F10008AE08093FD028FEF8093FE0289E0809338
:101F2000FF0282E18093000383E18093010384E157
:101F30008093020385E180930303109204031092BF
:101F4000050310920603109207031092080381E024
:101F50000E94220662E081E00E94320362E082E099
:101F60000E943203EAE8F1E0E491F0E0EE0FFF1F97
:101F7000E558FE4FA591B491B093EE02A093ED0207
:101F8000EDE5F1E044914093F102EBE8F1E0E491FA
:101F9000F0E0EE0FFF1FE558FE4FC591D491D093AE
:101FA000F002C093EF02EEE5F1E0E491E093F2027B
:101FB0001092F4021092F5021092F6021092F702BB
:101FC0002BE33FE1C9010197F1F79C91842F89230D
:101FD00091E009F490E08881E82309F092602DEE09
:101FE00032E09093F3023093EA022093E90288ED05
:101FF00094E09093330180933201809169008F7354
:10200000806480936900EB9A81E08093F8023093BA
:10201000E6022093E5028CEC94E090932F018093EC
:102020002E0180916900837F846080936900E99A22
:1020300082E08093F802DF91CF910895CF93DF93F0
:10204000CDB7DEB7E3970FB6F894DEBF0FBECDBFB6
:10205000789484B5826084BD84B5816084BD85B583
:10206000826085BD85B5816085BD80916E0081608F
:1020700080936E0010928100809181008260809335
:102080008100809181008160809381008091800037
:1020900081608093800080919100826080939100A4
:1020A0008091910081608093910080919000816087
:1020B000809390008091C10084608093C1008091E2
:1020C000C10082608093C1008091C10081608093D3
:1020D000C1008091C30081608093C3008091C000E3
:1020E00082608093C0008091C20081608093C200B2
:1020F00080917A00846080937A0080917A00826077
:1021000080937A0080917A00816080937A00809138
:102110007A00806880937A00109292021092840272
:10212000109283028091D70081608093D70080EA6B
:102130008093D80089B5806189BD89B5826089BDE9
:1021400009B400FEFDCF61E070E080E090E00E9405
:1021500088038091D8008F7C80618093D800809123
:10216000E000807F8093E0008091E1008E7E80938C
:10217000E1008DE08093E200559A209A8FEF9FEF67
:102180009093A00280939F0269E472E083E992E059
:102190000E94F7066DE572E083E992E00E94F7067F
:1021A00062E083E00E94320362E087E00E94320333
:1021B00061E084E00E94320361E088E00E94320323
:1021C00061E088E00E94C10282E00E9422066CE089
:1021D00071E081E00E94DB0664E171E083E00E942F
:1021E000DB066CE171E084E00E94DB0664E271E0F2
:1021F00085E00E94DB0662E370E080E090E00E94F0
:10220000880360E080E00E94C30680E692E00E94BE
:10221000060768EE73E080E090E00E9488038EE796
:1022200094E090932D0180932C01809169008C7F24
:10223000826080936900E89A81E894E09093350188
:102240008093340180916A00806380936A00EE9AE3
:1022500000E010E083E3E9E6F1E0DE011196019091
:102260000D928A95E1F763E070E0CE0101960E943D
:10227000DB077C016AEF70E080E090E00E94880359
:10228000F70109956AEF70E080E090E00E94880312
:1022900001151105F9F20E940000DCCFF999FECF7B
:1022A00092BD81BDF89A992780B50895262FF99996
:1022B000FECF1FBA92BD81BD20BD0FB6F894FA9A29
:1022C000F99A0FBE01960895991B79E004C0991FF1
:1022D000961708F0961B881F7A95C9F78095089580
:1022E00097FB072E16F4009407D077FD09D00E94C3
:1022F0008A1107FC05D03EF4909581959F4F089573
:10230000709561957F4F0895EE0FFF1F0590F49132
:10231000E02D0994AA1BBB1B51E107C0AA1FBB1FDC
:10232000A617B70710F0A61BB70B881F991F5A9561
:10233000A9F780959095BC01CD010895AEE0B0E07D
:10234000E4EAF1E10C944D140D891E8986E08C833A
:102350001A8309838FEF9FE79E838D83AE01475ECB
:102360005F4F6F89788DCE0101960E94C1112F8138
:102370003885020F131FF80110822E96E4E00C94AA
:102380006914ABE0B0E0E7ECF1E10C943F147C01A0
:102390003B018A01FC0117821682838181FFC8C13B
:1023A000CE0101965C01F7019381F30193FD8591C4
:1023B00093FF81913F01882309F453C1853239F499
:1023C00093FD859193FF81913F01853229F4B701F7
:1023D00090E00E94B113E7CF912C212C312CFFE12A
:1023E000F31538F08B3211F190F4803209F1833219
:1023F00029F137FC3CC020ED280F2A3050F536FE7D
:1024000020C08AE0989E200D1124922E06C08D32A5
:1024100091F0803371F7689430F8F30193FD859162
:1024200093FF81913F018111DACF21C0689431F887
:10243000689432F8F2CF689433F8EFCF689434F8A8
:10244000ECCFEAE02E9E200D1124222E689435F860
:10245000E4CF8E3229F436FC04C1689436F8DDCF1F
:102460008C3619F4689437F8D8CF8836B1F2982FA3
:102470009F7D95549330E0F08336A1F18337C1F10D
:10248000833509F063C02801F2E04F0E511CF801BA
:10249000C080D180692D70E036FC02C06FEF7FEF05
:1024A000C6010E949B134C01689437F882010AC050
:1024B0000C5F1F4FFFE3F98388248394912C6501FF
:1024C000E89437F833FE2DC0522C8114910471F535
:1024D000552009F468CFB70180E290E00E94B11363
:1024E0005A94F6CFF801808189830E5F1F4FE4CFA5
:1024F0002801F2E04F0E511CF801C080D180692DF7
:1025000070E036FC02C06FEF7FEFC6010E94A61399
:102510004C018201D5CFB70180E290E00E94B11357
:102520002A942814190409F0B0F7CECFF60137FC2D
:10253000859137FE81916F01B70190E00E94B11340
:1025400051105A94F1E08F1A9108BFCF843619F0D8
:10255000893609F077C0F80137FE6BC06081718160
:10256000828193810C5F1F4FF32DFF763F2E97FFE3
:1025700009C090958095709561957F4F8F4F9F4FC3
:10258000689437F82AE030E0A5010E94E113C82ED4
:10259000CA188C2C432C36FE0CC0E89440F8C914A1
:1025A00040F434FE05C032FC03C0F32DFE7E4F2EF6
:1025B000892C44FE95C0FE01EC0DF11D8081803315
:1025C00009F087C0242D297E422E842D8870582E34
:1025D00043FC95C040FE8FC09C2C821418F42C0C38
:1025E000922C981844FE91C0B70180E390E00E94BD
:1025F000B11342FE09C088E790E041FE02C088E5C1
:1026000090E0B7010E94B113C91408F48AC0CA94BB
:10261000D12C9FEFC91AD90ACA0CDB1CF601829192
:102620006F01B70190E00E94B113AC14BD04B1F783
:102630004FCF60817181072E000C880B990B0E5FC4
:102640001F4F92CFD32CE894D4F82AE030E085379E
:1026500039F1232D297FD22E8F3601F148F48835A8
:10266000A9F0F701868197812B96E2E10C945B1427
:10267000803749F08837A9F7D4FE02C06894D2F8B1
:1026800020E130E00DC06894D4F8F6CF34FE03C0EA
:10269000822F8660D82E20E132E002C028E030E0B0
:1026A000F801D7FE0FC060817181828193810C5F38
:1026B0001F4FA5010E94E113C82ECA183D2CE894B3
:1026C00037F867CF6081718190E080E00E5F1F4F27
:1026D000F0CF42FC02C0839478CF8394839475CF6B
:1026E000842D867809F471CFF6CFB70180E290E0AF
:1026F0000E94B11383948214C0F3512C73CF522CD7
:102700005818821408F46ECFF8CF842D867809F417
:102710007BCF8BE241FE80E247FC8DE2B70190E087
:1027200071CFB70180E390E00E94B1139A946CCF0F
:102730008FEF9FEF99CFFC01059061507040011021
:10274000D8F7809590958E0F9F1F0895FC016150DA
:10275000704001900110D8F7809590958E0F9F1FC3
:1027600008950F931F93CF93DF93182F092FEB0139
:102770008B8181FD09C01FEF0FEF812F902FDF911B
:10278000CF911F910F91089582FF14C02E813F8138
:102790008C819D81281739073CF4E881F981CF01AC
:1027A00001969983888310838E819F8101969F83F0
:1027B0008E83E3CFE885F985812F0995892BA1F3D5
:1027C000DACFFA01AA27283051F1203181F1E894BB
:1027D0006F936E7F6E5F7F4F8F4F9F4FAF4FB1E014
:1027E0003ED0B4E03CD0670F781F891F9A1FA11D0F
:1027F000680F791F8A1F911DA11D6A0F711D811D10
:10280000911DA11D20D009F468943F912AE0269FD4
:1028100011243019305D3193DEF6CF010895462F33
:102820004770405D4193B3E00FD0C9F7F6CF462F14
:102830004F70405D4A3318F0495D31FD405241937D
:1028400002D0A9F7EACFB4E0A6959795879577953A
:102850006795BA95C9F700976105710508959B01C1
:10286000AC010A2E06945795479537952795BA954A
:10287000C9F7620F731F841F951FA01D08952F9223
:102880003F924F925F926F927F928F929F92AF9200
:10289000BF92CF92DF92EF92FF920F931F93CF934D
:1028A000DF93CDB7DEB7CA1BDB0B0FB6F894DEBFE4
:1028B0000FBECDBF09942A88398848885F846E840A
:1028C0007D848C849B84AA84B984C884DF80EE8054
:1028D000FD800C811B81AA81B981CE0FD11D0FB65D
:1028E000F894DEBF0FBECDBFED010895F894FFCF81
:1028F000FFFFFFFF00E100000000000000040E1FCA
:102900000E0E0E00000E0E0E1F0E04001C10181CE2
:102910000107050700040C1F1F0C04003F043F04BF
:102920003F043F043F044372656174652050726543
:1029300073657400003A0944656C657465205072D3
:10294000657365740000420B5175697400000000E6
:102950000000000000000000004D616B6520546F16
:102960006173740000000000C2074C6F6164205066
:10297000726573657400000000510B4D616E6167F4
:1029800065205072657365747300B60800C180815C
:10299000000000000000004002BA0361025602A7D6
:1029A000026502830200000000D5061302410440C4
:1029B00004253032643A2530326400507573682043
:1029C00077686C20746F20717569740066696E6930
:1029D0007368656400507573682077686C20746F45
:1029E000205175697400456E746572206E616D6565
:1029F00000496E76616C6964206E616D6500456E9C
:102A00007465722074696D65005361766564004E6B
:102A10006F207370616365206C65667400436F722C
:102A200072757074206D656D6F727900506C6561A0
:102A300073652070616E696300426173696320454C
:102A40006E636F64657220546573743A000D0A00FA
:0E2A500048656C6C6F2C20576F726C6421000F
:00000001FF
