:100000000C94D5000C94380F0C94110F0C94EA0E3C
:100010000C94C30E0C94FD000C94FD000C949C0EEB
:100020000C94FD000C94FD000C94B10B0C94200C6E
:100030000C94FD000C94FD000C94FD000C94FD004C
:100040000C94FD000C94FD000C94FD000C94FD003C
:100050000C94FD000C94FD000C94FD000C94520EC9
:100060000C94FD000C94FD000C94FD000C94FD001C
:100070000C94FD000C94FD000C94FD000C94FD000C
:100080000C94FD000C94FD000C94FD000C94FD00FC
:100090000C94FD000C94FD000C94FD000C94FD00EC
:1000A0000C94FD000C94FD000C94FD000000000079
:1000B000240027002A002D00300000000000250049
:1000C00028002B002E0031000000000200090F0064
:1000D00000030401000C000000000000000000000C
:1000E00000000000000000080B00020202000009EE
:1000F0000400000102020000052400100105240193
:1001000001010424020605240600010705810310ED
:10011000004009040100020A000000070502024035
:1001200000000705830240000004030904120100D7
:1001300002EF020140412336800001010203014128
:10014000726475696E6F204C4C430041726475692E
:100150006E6F204C656F6E6172646F00040802015F
:100160001040804010204080408008020401804000
:1001700020100201108010204040200000000023C9
:1001800000260029002C002F0004040404040304AA
:100190000502020202040302020202060606060625
:1001A00006040402020204045F0F11241FBECFEFF5
:1001B000DAE0DEBFCDBF12E0A0E0B1E0EAECF8E2A9
:1001C00002C005900D92A835B107D9F722E0A8E545
:1001D000B2E001C01D92AB3FB207E1F710E0C5ED00
:1001E000D0E004C02197FE010E947111C43DD107E7
:1001F000C9F70E941D100C9463140C940000FC01BC
:1002000080917C02882311F13FB7F89482E08093BB
:10021000E9002091F200822F90E01816190614F4DC
:1002200081E090E0882339F0289844E640937B02EF
:100230004091F1004083222339F02091F2002111F6
:1002400003C02BE62093E8003FBF08958FEF9FEF98
:1002500008952FB7F89483E08093E9009091E80027
:10026000892F807295FF04C09091F20080E4891B71
:100270002FBF08958091730281110DC082E0809399
:100280006F0284E0809370021092720210927102E9
:1002900081E0809373028FE692E00895CF93DF931D
:1002A0001F92CDB7DEB76983DC01ED91FC9102802E
:1002B000F381E02D41E050E0BE016F5F7F4F099573
:1002C0000F90DF91CF91089583E08093E9008091B2
:1002D000F200882319F08AE38093E80008950E94D1
:1002E000290190E00895CF93DF931F92CDB7DEB739
:1002F000FC018485958597FD08C02FEF3FEF35877A
:1003000024870F90DF91CF910895CE0101960E942E
:10031000FF00019719F4898190E0F3CF8FEF9FEFF1
:10032000F0CF0F931F93CF93DF931F92CDB7DEB71C
:100330008C01FC018485958597FF0BC0CE01019649
:100340000E94FF00019771F4898190E0F801958780
:100350008487F801848595850F90DF91CF911F9157
:100360000F9108958FEF9FEFF1CFFC018485958564
:1003700097FD0BC09FB7F89482E08093E9008091CD
:10038000F2009FBF90E0019608959FB7F89482E035
:100390008093E9008091F2009FBF90E00895409122
:1003A000690250916A0220916702309168024217F7
:1003B0005307B4F49091E8009570E1F39091E80050
:1003C00092FD19C08093F1008091690290916A02B8
:1003D00001968F739927892B19F48EEF8093E8008B
:1003E0008091690290916A02019690936A028093CB
:1003F000690281E0089580E00895EF92FF920F93E3
:100400001F93CF93DF93F82E192FE62E042F81E050
:10041000860F880F0E94CF0183E00E94CF01CF2D6D
:10042000D12FEC0EFD2EF11CCE15DF05B9F007FF24
:1004300013C0FE0184910E94CF01182F80E00E941A
:10044000CF01812321968111EFCFDF91CF911F91B1
:100450000F91FF90EF9008958881EDCF81E0F5CF67
:10046000DF92EF92FF920F931F93CF93DF93D82EDB
:100470008A01EB017B01E40EF51ECE15DF0559F074
:10048000D7FE12C0FE0184910E94CF0121968111F6
:10049000F4CF0FEF1FEFC801DF91CF911F910F91A4
:1004A000FF90EF90DF9008958881EECF0F931F9318
:1004B000CF93DF931F92CDB7DEB782E0898342E40A
:1004C00050E067EE70E080E80E9430020E943A013E
:1004D000DC0112960D911C910115110589F0D801CE
:1004E000ED91FC910280F381E02DBE016F5F7F4FA3
:1004F000C801099597FD04C0F80100851185ECCF6E
:1005000089810F90DF91CF911F910F9108956150D4
:1005100030F02091F100FC0120830196F8CF28985B
:1005200084E680937B020895AF92BF92CF92DF92D0
:10053000EF92FF920F931F93CF93DF936C017B0198
:100540008B01040F151FEB015E01AE18BF08C01729
:10055000D10759F06991D601ED91FC910190F0819C
:10056000E02DC6010995892B79F7C501DF91CF915F
:100570001F910F91FF90EF90DF90CF90BF90AF90C1
:100580000895282F30E0F901E853FF4F9491F901C5
:10059000E45AFE4F849127573E4FF90124912223BC
:1005A00009F430C09923E9F091509F30D0F4E92F3D
:1005B000F0E0E352FD4F0C9471110B030F03EC02BA
:1005C00003030703F102F102F102120318031C03F3
:1005D00020032603F1022A03909180009F779093D5
:1005E0008000E22FF0E0EE0FFF1FE654FF4FA591D1
:1005F000B4919FB7F894EC91611132C080958E232D
:100600008C939FBF0895909180009F7DE8CF90913B
:100610008000977FE4CF94B59F7794BDE2CF94B5E7
:100620009F7DFBCF909190009F7790939000D9CFC2
:10063000909190009F7DF9CF90919000977FF5CF9A
:100640009091C0009F779093C000CBCF9091C00055
:100650009F7DF9CF9091C200977F9093C200C1CF48
:100660008E2BCECFCF93DF9390E0FC01E45AFE4F68
:10067000249187579E4FFC0184918823D1F090E00C
:10068000880F991FFC01E455FF4FA591B491FC011F
:10069000E654FF4FC591D491623071F49FB7F8943E
:1006A0003C91822F809583238C93E8812E2B288385
:1006B0009FBFDF91CF9108958FB7F894EC912E2BC7
:1006C0002C938FBFF6CF3FB7F8948091630290913F
:1006D0006402A0916502B091660226B5A89B05C090
:1006E0002F3F19F00196A11DB11D3FBFBA2FA92FB1
:1006F000982F8827BC01CD01620F711D811D911DAE
:1007000042E0660F771F881F991F4A95D1F7089519
:100710008F929F92AF92BF92CF92DF92EF92FF9211
:100720004B015C010E9463036B017C010E94630327
:100730006C197D098E099F09683E734081059105FA
:10074000A8F321E0821A9108A108B10888EEC80E2A
:1007500083E0D81EE11CF11C81149104A104B104B2
:1007600029F7FF90EF90DF90CF90BF90AF909F90D0
:100770008F9008958F929F92AF92BF92CF92DF9207
:10078000EF92FF920F931F93CF93DF936C017B0146
:100790008A0180912B01882309F45CC080917C023E
:1007A000882309F457C080916E0280FF05C08091B4
:1007B000E00082608093E000E801B12C8AEFA82E6F
:1007C00093E0892E2AE3922E209711F4BB20D9F1D1
:1007D0000E94290181110AC0AA94AA20D9F161E0DE
:1007E00070E080E090E00E948803EECF8C171D0639
:1007F00011F00CF08C2F9FB7F8948092E9002091B3
:10080000E80025FD02C09FBFDFCF282F30E0C21BCC
:10081000D30BF701815020F041914093F100FACFC2
:10082000E20EF31EBB2021F09092E800B12CEBCF3A
:100830008091E80085FDE7CF9092E800BB24B39457
:10084000209709F3F3CF5D9884E680936D0210162C
:1008500011063CF081E090E0F6019383828310E082
:1008600000E0C801DF91CF911F910F91FF90EF90B1
:10087000DF90CF90BF90AF909F908F900895089594
:10088000089590E080E00895CF92DF92EF92FF927A
:100890000F931F939FB7F89440915F0250916002AD
:1008A00060916102709162029FBF009159021091A4
:1008B0005A0220915B0230915C026A017B01C01AEE
:1008C000D10AE20AF30A970186010B3F11052105BF
:1008D000310568F04093590250935A0260935B02CD
:1008E00070935C0290915D02892B80935D021F9151
:1008F0000F91FF90EF90DF90CF90089581E00C94DE
:10090000440482E00C944404DC01ED91FD9180816B
:10091000ED91FD919081ED91FD916C9163708E232D
:1009200009F064609F2309F06860E1EAF4E0E60FF3
:10093000F11D659565956D936D917D918D919D915D
:10094000099423C01AC012C016C010C01EC009C02E
:1009500014C013C006C019C009C00DC007C00DC027
:1009600014C062507040804090400BC06150704095
:100970008040904006C06E5F01C06F5F7F4F8F4F19
:100980009F4F9E938E937E936E9308958091CD0298
:100990009091CE020C9484048091CF029091D00269
:1009A0000C9484048091D1029091D2020C9484041E
:1009B0008091D3029091D4020C9484048091D5024A
:1009C0009091D6020C9484044F925F926F927F9222
:1009D0008F929F92AF92BF92CF92DF92EF92FF924F
:1009E000CF934B015C01C42F8FB7F89440905F0206
:1009F0005090600260906102709062028FBF80919F
:100A0000E202823008F03FC0F89487ED92E00E9445
:100A10008404C090DE02D090DF02E090E002F0900B
:100A2000E102789480915D028C2309F064C080918A
:100A3000E202823050F5F89487ED92E00E9484043F
:100A40008091DE029091DF02A091E002B091E1027C
:100A500078942FEF82169206A206B206C1F4C81649
:100A6000D906EA06FB06F1F2B701A601481B590BAD
:100A70006A0B7B0B4370552766277727452B462B40
:100A8000472B81F618C0F894C4CFF894D9CF2FB76C
:100A9000F89440915F025091600260916102709100
:100AA00062022FBF44195509660977098416950615
:100AB000A606B706A0F68C199D09AE09BF09B7FFB7
:100AC00003C08FEF9FEF09C031E020E0892B8A2B14
:100AD0008B2B09F430E0832F922FCF91FF90EF9072
:100AE000DF90CF90BF90AF909F908F907F906F904E
:100AF0005F904F90089580E090E0EFCFCF93DF9329
:100B0000EC0160E08E810E94C10261E08E810E9452
:100B1000C10260E08E810E94C1028BE891E00197E2
:100B2000F1F7DF91CF910895CF92DF92EF92FF928C
:100B30000F931F93CF93DF936C017C0187E0E80E46
:100B4000F11CD0E0C0E0062F10E0B8010C2E02C06E
:100B5000759567950A94E2F76170F70181917F01BD
:100B60000E94C1022196C430D10579F7C601DF91F8
:100B7000CF911F910F91FF90EF90DF90CF900C9449
:100B80007E05CF92DF92EF92FF920F931F93CF9348
:100B9000DF93EC01F62E642F8C810E94C1028D81BF
:100BA0008F3F19F060E00E94C1020F2D10E08F8589
:100BB00084FF25C06E0187E0C80ED11CF12CE12C0A
:100BC000B8010E2C02C0759567950A94E2F7617022
:100BD000F60181916F010E94C102FFEFEF1AFF0A37
:100BE00088E0E816F10461F7CE01DF91CF911F9103
:100BF0000F91FF90EF90DF90CF900C947E05B8019D
:100C000084E0759567958A95E1F7CE010E94940579
:100C10006F2DCE01DF91CF911F910F91FF90EF903B
:100C2000DF90CF900C94940540E0682F83EE92E023
:100C30000C94C10581E00E9414068BE39FE10197AB
:100C4000F1F70895CF93DF93823029F49091F20267
:100C500098609093F2028093F6021092F70280E47B
:100C60008093F80280E18093F90280E58093FA0294
:100C700061E08091E7020E9432038091E8028F3F99
:100C800019F061E00E94320361E08091E9020E9464
:100C90003203C3EED2E09E01235E32408091F20225
:100CA00084FD0BC084E090E021962817390744F4B6
:100CB00061E08E810E943203EECF88E090E0F4CFB5
:100CC0008BE39DE00197F1F760E08091E7020E94DD
:100CD000C10260E08091E9020E94C1028091E802B5
:100CE0008F3F19F060E00E94C1028091F20284FD02
:100CF00034C063E083EE92E00E949405CBE4D6E436
:100D0000CE010197F1F763E083EE92E00E94940533
:100D10002197F1F763E083EE92E00E94940583E56A
:100D200092E00197F1F762E083EE92E00E94940571
:100D30008091F20280620E94140684E08093F302A4
:100D40008CE00E9414060E941A0682E08093F4024E
:100D500086E0DF91CF910C94140680620E94140605
:100D60008BE496E40197F1F78091F20280620E9491
:100D7000140683E592E00197F1F78091F202806218
:100D80000E941406D5CF643008F063E09091F6021B
:100D9000691710F06FEF690FE62FF0E0ED51FD4F8E
:100DA0009489890F80680C94140641E00E94C10563
:100DB00081E090E008950F931F93CF93DF938B0111
:100DC00028E0829FC001112480640E941406E8017B
:100DD000085F1F4F699183EE92E00E94D506C0170D
:100DE000D107C1F7DF91CF911F910F91089500971F
:100DF00069F0FC0101900020E9F73197AF01481B31
:100E0000590BBC0183EE92E00C94940290E080E0D8
:100E100008952F923F924F925F926F927F928F929E
:100E20009F92AF92BF92CF92DF92EF92FF920F9379
:100E30001F93CF93DF9300D000D0CDB7DEB75C0116
:100E40008B01CB0162E070E00E945D11AC01980162
:100E500017FF02C02F5F3F4F35952795240F351F91
:100E6000C90101979A83898390915D029E7F909337
:100E70005D021C821B8272E0472E512C1201241A43
:100E8000350A0E941A066B807C8077FE03C09FEFB4
:100E9000691A790A75946794161417044CF460E083
:100EA00080E00E94C30661E083EE92E00E94D506D6
:100EB000E981FA8141016E167F0664F461E080E009
:100EC0000E94C30663E083EE92E00E94D50692E0A2
:100ED000892E912C660C771CF1E1F69D7001F79D2F
:100EE000F00C1124EA0CFB1CD12CC12C6C2D82E0DF
:100EF0000E94C306C7010E94F7062FEFC21AD20A4A
:100F000031E1E30EF11C8C149D0481F78B819C81EF
:100F1000B2010E945D117C01682F81E00E94C3062E
:100F20006EE383EE92E00E94D50680915D0280FD23
:100F30001BC041E06FEF7FEFCB010E94E4042B81E7
:100F40003C81280F391F3C832B8337FF02C01C8252
:100F50001B828B819C81801791070CF492CFF80142
:100F60003197FC83EB838DCF6E0C7F1C21E1269D96
:100F7000C001279D900D1124A80EB91EF50107840C
:100F8000F089E02DFA83E98380915D028E7F809362
:100F90005D020E941A0689819A810F900F900F902E
:100FA0000F90DF91CF911F910F91FF90EF90DF9005
:100FB000CF90BF90AF909F908F907F906F905F90F9
:100FC0004F903F902F9008950F931F93CF93DF93EF
:100FD000CDB7DEB7E3970FB6F894DEBF0FBECDBF37
:100FE00083E3E6E3F1E0DE01119601900D928A952C
:100FF000E1F763E070E0CE0101960E9409078C01E1
:101000006AEF70E080E090E00E948803011511050E
:1010100011F0F8010995E3960FB6F894DEBF0FBE04
:10102000CDBFDF91CF911F910F9108950F931F9323
:10103000CF93DF9300D000D000D0CDB7DEB78E01C4
:101040000F5F1F4F96E0F80111929A95E9F76CE354
:101050000E9451111F929F931F928F9381EC91E0F8
:101060009F938F931F930F930E948B1161E085E0F4
:101070000E94C306C8010E94F7060FB6F894DEBFAF
:101080000FBECDBF26960FB6F894DEBF0FBECDBF04
:10109000DF91CF911F910F910895CF93DF93C82FC8
:1010A00080915D028E7F80935D0261E084E00E940A
:1010B000C1020E941A0660E080E00E94C3068BEC29
:1010C00091E00E94F70684E0C89FE0011124CE0160
:1010D00095958795959587950E94160880915D0254
:1010E00080FF15C080915D028E7F80935D0260E07D
:1010F00084E00E94C1020E941A0661E083E00E941F
:10110000C3068CED91E0DF91CF910C94F7066AEF66
:1011100070E080E090E00E9488032197C0F6E7CF5E
:101120001F93CF93DF93162FC82FD0E090915D02CD
:10113000862F8095892380935D020E941A0660E0C5
:1011400080E00E94C30685EE91E00E94F7068C2F96
:101150000E941608412F6FEF7FEFCB010E94E4043D
:101160009E01281B390BC90120915D02212361F4E6
:10117000EC018F3F910519F014F0CFEFD0E0D7FFCD
:10118000DCCFD0E0C0E0D9CFDF91CF911F9108959F
:1011900063E088E70E94900890915D0291FF0BC088
:1011A00090915D0290FD07C090915D029C7F9093AD
:1011B0005D020E944D0880915D028C7F80935D02EC
:1011C0000895CF93DF93EB010E943B118883CE01FA
:1011D000DF91CF910895CF92DF92EF92FF920F931C
:1011E0001F93CF93DF931F92CDB7DEB76C018B01B6
:1011F00084E0000F111F8A95E1F7BE016F5F7F4FFA
:10120000C8010F960E94E108898180FF29C0BE01B4
:101210006F5F7F4FC8010E94E108898190E0F6016D
:10122000908B8787F12CE12C0F5F1F4FB6016E0D5D
:101230007F1DC8018E0D9F1D0E94E108FFEFEF1A70
:10124000FF0A8EE0E816F10489F7C6010F90DF91DE
:10125000CF911F910F91FF90EF90DF90CF90089565
:10126000D12CC12CF2CF5F926F927F928F929F927E
:10127000AF92BF92CF92DF92EF92FF920F931F93A4
:10128000CF93DF93CDB7DEB7AE970FB6F894DEBF3E
:101290000FBECDBF7E018EE1E80EF11C81E1F701AA
:1012A00011928A95E9F760E082E00E94C30686EF1A
:1012B00091E00E94F70680915D028C7F80935D0231
:1012C00043E060ED77E080E090E00E94E4048091EC
:1012D0005D028C7F80935D020E941A06FE013196AA
:1012E00081E45F0181938F5F8B35E1F78FE58B8F11
:1012F00085E08C8F84E08D8F27E1522E10E000E096
:101300003DE1832E912C0E941A068091F3028E7F7C
:101310008093F30288600E94140660E080E00E94DF
:10132000C306A801B70183EE92E00E9494026FE524
:1013300083EE92E00E94D50661E080E00E94C30641
:10134000D12CC12C652C052C000C7708C601069702
:10135000029728F460E283EE92E00E94D506C30172
:101360008C0D9D1DB4010E945D11F501E80FF91F60
:10137000608183EE92E00E94D506FFEFCF1ADF0A6C
:101380008DE0C816D10411F760E0802F0E94C306DB
:101390008091F302982F91609093F30289600E94EC
:1013A000140641E06FEF7FEFCB010E94E404580E7A
:1013B00057FE02C09DE1592E80915D0280FFA3CFB0
:1013C00080915D028E7F80935D02852D052C000C3F
:1013D000990B0696B4010E945D11F501E80FF91F03
:1013E0008081853039F40115110509F48CCF015045
:1013F000110989CFF701E00FF11F843009F044C0D3
:1014000010820E941A068091F3028D7F8093F3026E
:1014100088600E9414068091F3028E7F8093F3020D
:1014200088600E941406012BC1F560E081E00E94F3
:10143000C30681E092E00E94F70680915D028C7FF6
:1014400080935D0243E060ED77E080E090E00E94F1
:10145000E40480915D028C7F80935D02AE960FB6AE
:10146000F894DEBF0FBECDBFDF91CF911F910F91DA
:10147000FF90EF90DF90CF90BF90AF909F908F90B4
:101480007F906F905F90089580830E30110510F06B
:101490000DE010E00F5F1F4F36CF60E082E00E944A
:1014A000C3068EE092E00E94F70680915D028C7F79
:1014B00080935D0243E060ED77E080E090E00E9481
:1014C000E40480915D028C7F80935D0261E088E797
:1014D0000E94900820915D022E7F20935D02992743
:1014E0009EA78DA781E1F50111928A95E9F710E099
:1014F00000E0B801C5010E94EB08892BC1F00F5F25
:101500001F4F00341105A9F760E081E00E94C30677
:101510008FE192E00E94F70680915D028E7F8093BA
:101520005D0241E060ED77E080E090E033C084E070
:10153000000F111F8A95E1F761E0C8010F960E9424
:1015400043116DA5C8010E9443116E01FCE2CF0E4C
:10155000D11C0E191F09F70161917F01C8018E0F7F
:101560009F1F0E944311CE14DF04A9F70E941A06A0
:1015700060E085E00E94C30689E192E00E94F706E0
:1015800080915D028E7F80935D0241E066ED76E0A2
:1015900080E090E00E94E40480915D028E7F5CCF49
:1015A0009F92AF92BF92CF92DF92EF92FF920F93F2
:1015B0001F93CF93DF93CDB7DEB7C155D4400FB69D
:1015C000F894DEBF0FBECDBF9E012F5F3F4F690174
:1015D00081E594E0F9019C01119221503040E1F73E
:1015E000F12CE12C10E000E081E1982E909E50015A
:1015F000919EB00C1124AC0CBD1CB701C5010E941A
:10160000EB08892B29F0F501F08AE7860F5F1F4F61
:10161000FFEFEF1AFF0A20E4E216F10439F721E1A7
:10162000209FC001219F900D11248C0D9D1D25E050
:10163000E1EFF1E0DC0101900D922A95E1F72FEF47
:101640003FEFFC01308B2787B8016F5F7F4FC601EA
:101650000E940907CF5ADB4F0FB6F894DEBF0FBECA
:10166000CDBFDF91CF911F910F91FF90EF90DF9051
:10167000CF90BF90AF909F9008950E94D00A8F3F67
:10168000980749F024E0880F991F2A95E1F760E058
:101690000F960C94431108950F931F93CF93DF93EC
:1016A000CDB7DEB761970FB6F894DEBF0FBECDBFE2
:1016B0008E010F5F1F4F81E1F80111928A95E9F7C2
:1016C0000E94D00A8F3F980741F1BC01C8010E94D7
:1016D000EB08892B69F50E941A0660E080E00E9401
:1016E000C3064EE050E06DE272E083EE92E00E94AD
:1016F000940261E080E00E94C3064CE050E06CE39D
:1017000072E083EE92E00E94940268EB7BE080E05E
:1017100090E00E9488030E941A0661960FB6F89422
:10172000DEBF0FBECDBFDF91CF911F910F91089506
:1017300063E088890E94900890915D0291FF0BC040
:1017400090915D0290FD07C090915D029C7F909307
:101750005D020E944D0880915D028C7F80935D0246
:10176000DCCF1F920F920FB60F9211248F939F938D
:101770008091E1009091E100937F9093E10083FFDD
:101780000FC01092E90091E09093EB001092EC00F2
:1017900092E39093ED0010927C0298E09093F00019
:1017A00082FF22C093E09093E9009091F200992388
:1017B00019F09AE39093E80090916D02992341F01B
:1017C00090916D02915090936D02911101C05D9ABC
:1017D00090917B02992341F090917B0291509093DC
:1017E0007B02911101C0289A84FF18C08091E20009
:1017F0008E7E81608093E2008091E1008F7E8093F5
:10180000E10080916E028E7E806180936E029F91D6
:101810008F910F900FBE0F901F90189580FFF7CFFC
:101820008091E2008E7E80618093E2008091E100F1
:101830008E7E8093E10080916E028E7E8160E5CF86
:101840001F920F920FB60F921124CF92DF92EF9258
:10185000FF920F931F932F933F934F935F936F9339
:101860007F938F939F93AF93BF93EF93FF93CF9308
:10187000DF93CDB7DEB76C97DEBFCDBF1092E90026
:101880008091E80083FF25C068E0CE0145960E9464
:10189000870282EF8093E8008D8987FF39C090919D
:1018A000E80090FFFCCF982F907609F034C19E8914
:1018B0004F89588D2F89F88C911131C0803861F58E
:1018C00080916C028093F1001092F1008EEF809372
:1018D000E8006C960FB6F894DEBF0FBECDBFDF9167
:1018E000CF91FF91EF91BF91AF919F918F917F9198
:1018F0006F915F914F913F912F911F910F91FF90A9
:10190000EF90DF90CF900F900FBE0F901F90189523
:101910009EEF9093E800C7CF1092F100D5CF9130A1
:1019200059F48111D3CF4130510581F680916C0279
:101930008D7F80936C02CACF933049F48111C6CF5A
:101940004130510519F680916C028260F2CF9530DA
:1019500041F48091E80080FFFCCF20682093E300F1
:10196000B5CF963009F0A9C00B8D1C8D22E01092E6
:10197000E90010926A0210926902F2122EC01092CF
:101980006802109267020E9456021F8299E09983B2
:10199000FA8291E09E8390EA98879AEF9987209146
:1019A000690230916A02275F3F4F3C832B838D830E
:1019B0001092E90010926A02109269021093680274
:1019C0000093670249E050E0BE016F5F7F4F80E007
:1019D0000E9430020E94560279CF10936802009351
:1019E00067020E943A01DC0112960D911C910115CB
:1019F000110509F451C1D801ED91FC910480F581E4
:101A0000E02DBE016B5E7F4FC8010995009709F07C
:101A10003EC1F80100851185EACFF3E0FF120EC048
:101A20008F89882309F440C0823061F440E860E186
:101A30008BE491E00E94FD01811148CF81E2809307
:101A4000EB0047CF813029F440E86BE08FE391E071
:101A5000F1CF833099F70E943A01DC011296ED90A4
:101A6000FC908E010F5F1F4F6801E114F10479F0C3
:101A7000D701ED91FC910680F781E02DB801C701F7
:101A80000995080F111DF701E084F184EECFD8010C
:101A90001C92F60101900020E9F73197BF016C1903
:101AA0007D0940E0C601C6CF69E271E0FB014491C7
:101AB00050E080E80E94300209CF973009F4BECF91
:101AC000983021F481E08093F10000CF993009F043
:101AD000FDCE837009F0B2CFEDE9F1E081E031E0B5
:101AE00096E32191222371F08093E9003093EB007B
:101AF000DF0111972C912093EC009093ED008F5F04
:101B0000873079F78EE78093EA001092EA008F8998
:101B100080937C02DBCE8B8D9C8D1092E90010921D
:101B20006A02109269029093680280936702898D1D
:101B3000811192C08E899D89913A49F4813209F0D0
:101B40007DCF47E050E064E271E080E0B3CF9132B6
:101B500009F074CF833269F48F89988DB0E0A0E0EA
:101B60008093200190932101A0932201B09323013F
:101B7000ADCE803269F48091E80082FFFCCF67E04F
:101B800084E291E00E9487028BEF8093E8009ECE72
:101B9000823209F09BCE8F8980932B01EEEFFFE715
:101BA000859194918B3F9C4D51F1E0E0F8E080915C
:101BB000240190912501A0912601B0912701803B3D
:101BC0009440A105B105F1F480912B0180FD1AC06C
:101BD000EE3F8AE0F80789F587E797E791838083EE
:101BE0008091600080936B0288E19BE00FB6F894CF
:101BF000A895809360000FBE9093600067CEEEEFD3
:101C0000FAE0D5CF808191818737974709F05ECE82
:101C1000A8958091600088618093600080916B023C
:101C200080936000EE3F2AE0F20789F08091FE0A7F
:101C30009091FF0A9183808349CE8081918187377B
:101C4000980751F29093FF0A8093FE0AC5CF109235
:101C5000FF0A1092FE0A3ACE0E943A01DC01129667
:101C60000D911C910115110509F4E8CED801ED91F3
:101C7000FC910190F081E02DBE016B5E7F4FC801A9
:101C80000995811123CEF80100851185EBCF181637
:101C900019060CF41BCED2CEF1E0FF12BECE6DE2DF
:101CA00071E004CF1F920F920FB60F9211242F9361
:101CB0003F938F939F93AF93BF9380915F029091D7
:101CC0006002A0916102B091620230915E0223E055
:101CD000230F2D3758F50196A11DB11D20935E02EB
:101CE00080935F0290936002A0936102B0936202BE
:101CF0008091630290916402A0916502B0916602A6
:101D00000196A11DB11D8093630290936402A0937C
:101D10006502B0936602BF91AF919F918F913F9101
:101D20002F910F900FBE0F901F90189526E8230F4C
:101D30000296A11DB11DD2CF1F920F920FB60F9226
:101D400011242F933F934F935F936F937F938F93C0
:101D50009F93AF93BF93EF93FF93E0913401F09182
:101D600035010995FF91EF91BF91AF919F918F91AF
:101D70007F916F915F914F913F912F910F900FBE87
:101D80000F901F9018951F920F920FB60F9211246B
:101D90002F933F934F935F936F937F938F939F9373
:101DA000AF93BF93EF93FF93E0913201F091330132
:101DB0000995FF91EF91BF91AF919F918F917F9185
:101DC0006F915F914F913F912F910F900FBE0F90A8
:101DD0001F9018951F920F920FB60F9211242F93F8
:101DE0003F934F935F936F937F938F939F93AF93A3
:101DF000BF93EF93FF93E0913001F091310109958A
:101E0000FF91EF91BF91AF919F918F917F916F91D2
:101E10005F914F913F912F910F900FBE0F901F90A8
:101E200018951F920F920FB60F9211242F933F9384
:101E30004F935F936F937F938F939F93AF93BF93D2
:101E4000EF93FF93E0912E01F0912F010995FF91FF
:101E5000EF91BF91AF919F918F917F916F915F9122
:101E60004F913F912F910F900FBE0F901F9018959B
:101E70001F920F920FB60F9211242F933F934F93FF
:101E80005F936F937F938F939F93AF93BF93EF93E2
:101E9000FF93E0912C01F0912D010995FF91EF91B5
:101EA000BF91AF919F918F917F916F915F914F9172
:101EB0003F912F910F900FBE0F901F901895CF93C9
:101EC000DF931092800210927F0288EE93E0A0E0F0
:101ED000B0E08093810290938202A0938302B0933A
:101EE000840287EA91E090937E0280937D028FEFD7
:101EF0009FEF90938A02809389021092E6021092DB
:101F0000E50289EB91E09093E4028093E3028AE09A
:101F10008093E7028FEF8093E80289E08093E902E3
:101F200082E18093EA0283E18093EB0284E1809373
:101F3000EC0285E18093ED021092EE021092EF0226
:101F40001092F0021092F1021092F20281E00E94CF
:101F5000220662E081E00E94320362E082E00E9499
:101F60003203EAE8F1E0E491F0E0EE0FFF1FE558FC
:101F7000FE4FA591B491B093D802A093D702EDE59E
:101F8000F1E044914093DB02EBE8F1E0E491F0E012
:101F9000EE0FFF1FE558FE4FC591D491D093DA02A2
:101FA000C093D902EEE5F1E0E491E093DC021092F7
:101FB000DE021092DF021092E0021092E1022BE3A7
:101FC0003FE1C9010197F1F79C91842F892391E0AA
:101FD00009F490E08881E82309F0926027ED32E06F
:101FE0009093DD023093D4022093D30288ED94E0E5
:101FF0009093330180933201809169008F738064E4
:1020000080936900EB9A81E08093E2023093D002E2
:102010002093CF028CEC94E090932F0180932E01BB
:1020200080916900837F846080936900E99A82E0EF
:102030008093E202DF91CF910895CF93DF93CDB7E4
:10204000DEB7E3970FB6F894DEBF0FBECDBF78942E
:1020500084B5826084BD84B5816084BD85B58260AD
:1020600085BD85B5816085BD80916E00816080935E
:102070006E001092810080918100826080938100C7
:1020800080918100816080938100809180008160D7
:102090008093800080919100826080939100809174
:1020A0009100816080939100809190008160809385
:1020B00090008091C10084608093C1008091C10034
:1020C00082608093C1008091C10081608093C100D3
:1020D0008091C30081608093C3008091C0008260C2
:1020E0008093C0008091C20081608093C200809183
:1020F0007A00846080937A0080917A008260809375
:102100007A0080917A00816080937A0080917A00D1
:10211000806880937A0010927C0210926C02109278
:102120006E028091D70081608093D70080EA80930F
:10213000D80089B5806189BD89B5826089BD09B43F
:1021400000FEFDCF61E070E080E090E00E94880337
:102150008091D8008F7C80618093D8008091E000CE
:10216000807F8093E0008091E1008E7E8093E1008B
:102170008DE08093E200559A209A62E083E00E940D
:10218000320362E087E00E94320361E084E00E9453
:10219000320361E088E00E94320361E088E00E943F
:1021A000C10282E00E94220660E071E081E00E94AC
:1021B000DB0668E071E083E00E94DB0660E171E02D
:1021C00084E00E94DB0668E171E085E00E94DB06A6
:1021D00062E370E080E090E00E94880360E080E0CD
:1021E0000E94C30689E492E00E94F70668EE73E05D
:1021F00080E090E00E9488038EE794E090932D01A8
:1022000080932C01809169008C7F826080936900AB
:10221000E89A81E894E090933501809334018091AD
:102220006A00806380936A00EE9A00E010E083E326
:10223000E9E6F1E0DE01119601900D928A95E1F751
:1022400063E070E0CE0101960E9409077C016AEF0D
:1022500070E080E090E00E948803F70109956AEF42
:1022600070E080E090E00E94880301151105F9F20A
:102270000E940000DCCFF999FECF92BD81BDF89A93
:10228000992780B50895262FF999FECF1FBA92BDE0
:1022900081BD20BD0FB6F894FA9AF99A0FBE019647
:1022A0000895991B79E004C0991F961708F0961BB2
:1022B000881F7A95C9F78095089597FB072E16F425
:1022C000009407D077FD09D00E94771107FC05D054
:1022D0003EF4909581959F4F0895709561957F4F3D
:1022E0000895EE0FFF1F0590F491E02D0994AA1BAD
:1022F000BB1B51E107C0AA1FBB1FA617B70710F0F1
:10230000A61BB70B881F991F5A95A9F78095909522
:10231000BC01CD010895AEE0B0E0E1E9F1E10C943B
:102320003A140D891E8986E08C831A8309838FEF06
:102330009FE79E838D83AE01475E5F4F6F89788DE7
:10234000CE0101960E94AE112F813885020F131F16
:10235000F80110822E96E4E00C945614ABE0B0E045
:10236000E4EBF1E10C942C147C013B018A01FC01AB
:1023700017821682838181FFC8C1CE0101965C015C
:10238000F7019381F30193FD859193FF81913F01C3
:10239000882309F453C1853239F493FD859193FF65
:1023A00081913F01853229F4B70190E00E949E138C
:1023B000E7CF912C212C312CFFE1F31538F08B3233
:1023C00011F190F4803209F1833229F137FC3CC0DD
:1023D00020ED280F2A3050F536FE20C08AE0989E66
:1023E000200D1124922E06C08D3291F0803371F7AA
:1023F000689430F8F30193FD859193FF81913F013B
:102400008111DACF21C0689431F8689432F8F2CFA4
:10241000689433F8EFCF689434F8ECCFEAE02E9E5E
:10242000200D1124222E689435F8E4CF8E3229F441
:1024300036FC04C1689436F8DDCF8C3619F4689404
:1024400037F8D8CF8836B1F2982F9F7D95549330C6
:10245000E0F08336A1F18337C1F1833509F063C021
:102460002801F2E04F0E511CF801C080D180692D87
:1024700070E036FC02C06FEF7FEFC6010E94881348
:102480004C01689437F882010AC00C5F1F4FFFE3CC
:10249000F98388248394912C6501E89437F833FEFE
:1024A0002DC0522C8114910471F5552009F468CF88
:1024B000B70180E290E00E949E135A94F6CFF80193
:1024C000808189830E5F1F4FE4CF2801F2E04F0E19
:1024D000511CF801C080D180692D70E036FC02C02B
:1024E0006FEF7FEFC6010E9493134C018201D5CF9D
:1024F000B70180E290E00E949E132A9428141904E8
:1025000009F0B0F7CECFF60137FC859137FE819107
:102510006F01B70190E00E949E1351105A94F1E0B0
:102520008F1A9108BFCF843619F0893609F077C029
:10253000F80137FE6BC060817181828193810C5FED
:102540001F4FF32DFF763F2E97FF09C09095809582
:10255000709561957F4F8F4F9F4F689437F82AE0B1
:1025600030E0A5010E94CE13C82ECA188C2C432C33
:1025700036FE0CC0E89440F8C91440F434FE05C09F
:1025800032FC03C0F32DFE7E4F2E892C44FE95C0F5
:10259000FE01EC0DF11D8081803309F087C0242DF0
:1025A000297E422E842D8870582E43FC95C040FE13
:1025B0008FC09C2C821418F42C0C922C981844FE7A
:1025C00091C0B70180E390E00E949E1342FE09C0D3
:1025D00088E790E041FE02C088E590E0B7010E94E4
:1025E0009E13C91408F48AC0CA94D12C9FEFC91A4B
:1025F000D90ACA0CDB1CF60182916F01B70190E089
:102600000E949E13AC14BD04B1F74FCF608171815D
:10261000072E000C880B990B0E5F1F4F92CFD32C07
:10262000E894D4F82AE030E0853739F1232D297F6A
:10263000D22E8F3601F148F48835A9F0F701868152
:1026400097812B96E2E10C944814803749F0883743
:10265000A9F7D4FE02C06894D2F820E130E00DC0A2
:102660006894D4F8F6CF34FE03C0822F8660D82E4B
:1026700020E132E002C028E030E0F801D7FE0FC0D0
:1026800060817181828193810C5F1F4FA5010E943F
:10269000CE13C82ECA183D2CE89437F867CF608156
:1026A000718190E080E00E5F1F4FF0CF42FC02C0CE
:1026B000839478CF8394839475CF842D867809F49E
:1026C00071CFF6CFB70180E290E00E949E13839411
:1026D0008214C0F3512C73CF522C5818821408F472
:1026E0006ECFF8CF842D867809F47BCF8BE241FE44
:1026F00080E247FC8DE2B70190E071CFB70180E343
:1027000090E00E949E139A946CCF8FEF9FEF99CF29
:10271000FC010590615070400110D8F780959095AC
:102720008E0F9F1F0895FC016150704001900110B1
:10273000D8F7809590958E0F9F1F08950F931F9344
:10274000CF93DF93182F092FEB018B8181FD09C0F7
:102750001FEF0FEF812F902FDF91CF911F910F91DE
:10276000089582FF14C02E813F818C819D8128179E
:1027700039073CF4E881F981CF0101969983888378
:1027800010838E819F8101969F838E83E3CFE8859E
:10279000F985812F0995892BA1F3DACFFA01AA27B0
:1027A000283051F1203181F1E8946F936E7F6E5F94
:1027B0007F4F8F4F9F4FAF4FB1E03ED0B4E03CD042
:1027C000670F781F891F9A1FA11D680F791F8A1F25
:1027D000911DA11D6A0F711D811D911DA11D20D08C
:1027E00009F468943F912AE0269F11243019305D46
:1027F0003193DEF6CF010895462F4770405D419337
:10280000B3E00FD0C9F7F6CF462F4F70405D4A3383
:1028100018F0495D31FD4052419302D0A9F7EACF4B
:10282000B4E0A6959795879577956795BA95C9F77A
:1028300000976105710508959B01AC010A2E06946D
:102840005795479537952795BA95C9F7620F731F26
:10285000841F951FA01D08952F923F924F925F9263
:102860006F927F928F929F92AF92BF92CF92DF92A0
:10287000EF92FF920F931F93CF93DF93CDB7DEB705
:10288000CA1BDB0B0FB6F894DEBF0FBECDBF099499
:102890002A88398848885F846E847D848C849B84F0
:1028A000AA84B984C884DF80EE80FD800C811B81FE
:1028B000AA81B981CE0FD11D0FB6F894DEBF0FBE2D
:0A28C000CDBFED010895F894FFCF9D
:1028CA0000040E1F0E0E0E00000E0E0E1F0E040048
:1028DA001C10181C0107050700040C1F1F0C04001C
:1028EA00FFFFFFFF00E10000000000003F043F047B
:1028FA003F043F043F04437265617465205072656A
:10290A007365740000330944656C65746520507200
:10291A006573657400003D0B517569740000000011
:10292A000000000000000000004D616B6520546F3C
:10293A006173740000000000C8084C6F6164205085
:10294A007265736574000000004C0B4D616E61671F
:10295A0065205072657365747300E40700C1808155
:10296A00000000000000004E01BA036F016401B5C7
:10297A00017301910100000000D506940241044050
:10298A0004253032643A2530326400507573682069
:10299A0077686C20746F20717569740066696E6956
:1029AA007368656400507573682077686C20746F6B
:1029BA00205175697400456E746572206E616D658B
:1029CA0000496E76616C6964206E616D6500456EC2
:1029DA007465722074696D65005361766564004E92
:1029EA006F207370616365206C65667400436F7253
:1029FA0072757074206D656D6F727900506C6561C7
:102A0A0073652070616E69630048656C6C6F2C2079
:082A1A00576F726C642100008B
:00000001FF
